:100000000C949B000C94B8000C94B8000C94B800AD
:100010000C94B8000C94B8000C94B8000C94B80080
:100020000C94B8000C94B8000C94B8000C94B80070
:100030000C94B8000C94B8000C94B8000C94B80060
:100040000C94B8000C94B8000C9439030C947A0307
:100050000C94B8000C94190C0C94B8000C94B800D3
:100060000C94B8000C94B8000C94B8000C94B80030
:100070000C94B8000C94B8000C9459030C94B8007C
:100080000C94B8000C94B8000C94B8003A643D3459
:100090002C623D3136303A3136612C3136672C32A4
:1000A000612C3136672C3136662C3136642C313672
:1000B000652C3463232C642E003A643D31362C6267
:1000C0003D3136303A632C63362E003A3A633600BF
:1000D00064756D70696E672025752062797465732B
:1000E0002066726F6D2025700D0A202020202020B0
:1000F00020302020312020322020332020342020A6
:10010000352020362020372020382020392020415B
:10011000202042202043202044202045202046202B
:10012000202020303132333435363738394142439C
:100130004445460D0A0011241FBECFEFD0E1DEBFBB
:10014000CDBF11E0A0E0B1E0E0E2FDE200E00BBFD6
:1001500002C007900D92A034B107D9F714E0A0E4D3
:10016000B1E001C01D92A930B107E1F70C94DC02A7
:100170000C940000EF92FF920F931F93CF93DF93A5
:1001800048E150E02AE00FB6F894A89541BD0FBEB3
:1001900021BD01B3006301BB959A82B1886182B928
:1001A00084B799278C709070892B09F04AC014BECF
:1001B0000E94280C0E940C0E1DE010938A006AE138
:1001C00076E0709387006093860080E190E80E945B
:1001D000250440E050E068EA73E08FEB93E00E9472
:1001E000270E0FEF1FEFCCEFDFE085ECE82E83E169
:1001F000F82ECE010E94140EF70181937F0108278B
:10020000002E0295007F0025012E102F02950F7001
:100210000026069510270127000F000F000F00256C
:10022000C8012196F0E1C030DF071CF3892B71F083
:100230001092C9031092CA031092CB031092CC0300
:1002400005C08CE890E00E94A40AB1CF89EB90E051
:100250000E94A40A949A95987894DF91CF911F9167
:100260000F91FF90EF9008958F929F92AF92BF925F
:10027000CF92DF92EF92FF920F931F93CF93DF9372
:10028000CDB7DEB7E0970FB6F894DEBF0FBECDBF97
:100290006C017B016230710550F480E00E944504DE
:1002A00080E00E9445048BEF0E94450470C1F60176
:1002B0008181082F112780810E944504802F0E9490
:1002C000450442E0842E912C8C0C9D1C3EEFA32E05
:1002D0003FEFB32EAE0CBF1C0430110579F1053091
:1002E000110594F40130110509F411C10230110512
:1002F0000CF408C10230110509F417C103301105CF
:1003000009F4A6C08CEFD0CF0730110509F455C011
:1003100008301105CCF50530110509F414C106307B
:10032000110581F7B0E3AB16B10408F4BCCF80919E
:10033000C803882309F415C18AEFB6CFF2E0AF16DF
:10034000B10408F4B0CF80E00E944504F601E280D9
:10035000F380F3E0AF16B10408F419C122E0C22E15
:10036000D12CC80CD91C850102501040C70108943B
:10037000E11CF11CD6016D916D010E941C0EA89527
:100380000150104099F703C10830110509F483C0EA
:100390000930110509F0B6CF82E0A816B10408F4BF
:1003A00082CF80E00E944504D4018D909C90909271
:1003B000CA038092C9038CEF77CFAB2809F473CFBF
:1003C00080E00E94450423B1277EF60182819927AF
:1003D00080FD286081FD206123B940E547B90E9476
:1003E0002F0C0E942F0C0E94940439E437B90E940C
:1003F0002F0C0E942F0C0E94940410E417B90E9445
:100400002F0C02E010E0502F506457B90E942F0CBF
:100410000E9494040F5F1F4F06301105A4F390EC67
:1004200097B90E942F0C76EC77B90E942F0C0E948E
:10043000940467EC67B90E942F0C0E949404BEE5F7
:10044000B7B90E942F0C0E942F0C0E9494049FC0E9
:10045000B4E0AB16B10408F426CF80E00E94450456
:10046000F401E080F1800281138101501040FFEF20
:100470000F3F1F0709F48BC0C7010894E11CF11C52
:100480000E94140E0E944504015010408FEF0F3F50
:10049000180791F77CC02FEF3FEF3093CC032093E8
:1004A000CB03E9ECF3E0D1902D25022E2295207F9D
:1004B0002025032E322F22952F70022626953227D3
:1004C0002327220F220F220F20253093CC032093C5
:1004D000CB03A3E0EA3CFA0731F328F30CEF1FE06B
:1004E00095ECE92E93E1F92EF70161917F01C801A6
:1004F0000E941C0EA8950F5F1F4FF0E100301F07F0
:100500009CF34ACF012B09F0FDCE80E0CDCE80E0F8
:100510000E94450480E391E00E94940460E074E24C
:1005200084EF90E00E9436058ACF80E00E94450467
:10053000A80CB91C0894A108B108D5011C92C401EB
:100540000E94680A24C080E00E944504CE01019602
:100550000E941A0D60E370E0CE0101960E948706AA
:1005600016C00E9445042FEC33E000E3F901D401EA
:100570000D9001920A95E1F7C9010E945A0C109260
:100580008900109288001092CE031092CD030E9431
:10059000F406E0960FB6F894DEBF0FBECDBFDF9134
:1005A000CF911F910F91FF90EF90DF90CF90BF9070
:1005B000AF909F908F900895CFEFD0E1DEBFCDBF79
:1005C0000E94BA0060E870E088E493E00E94A0070F
:1005D000A89585E487B9C0E00E942F0C2091C9033B
:1005E0003091CA038217930708F4C1E0C093C8038F
:1005F000CC23D1F50E94AF07BC011816190634F4BC
:10060000949888E493E00E943401949A30917C009D
:1006100034FFDECF4091CD035091CE034A305105D7
:10062000BCF68FEC93E00E945A0C50917C00506114
:1006300050937C00A091CD03B091CE031196B0935E
:10064000CE03A093CD03A89585E487B9C0E00E94AE
:100650002F0C2091C9033091CA038217930728F207
:10066000C093C803CC2331F28BEC90E00E94A40A23
:10067000C1CF1F920F920FB60F9211248F939F93A9
:10068000EF93FF939CB1E091C202EF5F8091C002B3
:10069000E81731F0E093C202FF27E05CFE4F908341
:1006A000FF91EF919F918F910F900FBE0F901F9030
:1006B00018951F920F920FB60F9211248F939F934C
:1006C000EF93FF9390919C00E091C202EF5F8091C5
:1006D000C002E81731F0E093C202FF27E05CFE4F52
:1006E0009083FF91EF919F918F910F900FBE0F908C
:1006F0001F9018951F920F920FB60F9211242F93EF
:100700003F934F938F939F93EF93FF939091C302E7
:100710008091C102891779F0492F4F5F4F7740933D
:10072000C302E42FFF27E05CFD4F30813CB92081FC
:1007300020939C0001C05598FF91EF919F918F915C
:100740004F913F912F910F900FBE0F901F901895D2
:100750008091C2029091C002891729F4A8958091D6
:10076000C2028917D9F3892F8F5FE82FFF27E05C3A
:10077000FE4F90818093C002892F99270895282FDA
:100780009091C1029F5F9F778091C302981729F4CF
:10079000A8958091C3029817D9F3E92FFF27E05C51
:1007A000FD4F20839093C102559A80E090E0089518
:1007B000DC012C912223D9F0E091C10211969E2FE9
:1007C0009F5F9F778091C302981729F4A895809125
:1007D000C3029817D9F3E92FFF27E05CFD4F208370
:1007E000E92F9093C102559A2C91222339F708954D
:1007F000FC019C012F5F3F4F44914423F1F0509145
:10080000C102952F9F5F9F778091C302981729F4AB
:10081000A8958091C3029817D9F3E92FFF27E05CD0
:10082000FD4F4083592F559AF9012F5F3F4F649137
:10083000462F662331F79093C10208958091C2023A
:100840009091C002891B992708959C011092C302C0
:100850001092C1021092C0021092C202832F9927F7
:100860008F77809390008093980029B92093990006
:10087000232F221F2227221F220F2BB920939B00F8
:1008800088E98AB980939A000895CF93C82F809100
:10089000C6029091C702892B51F08C2F9927803C7A
:1008A000910599F08B3D9105A9F08C2F17C080EC34
:1008B0000E94BF032FEF3FEF3093C5022093C40285
:1008C0008C2F9927803C910569F78BED0E94BF031F
:1008D0008CED04C08BED0E94BF038DED0E94BF0321
:1008E0004091C4025091C5024C27042E4295407F8E
:1008F0004025052E542F42954F70042646955427C7
:100900004527440F440F440F40255093C5024093A0
:10091000C402A091C602B091C7021196B093C7025B
:10092000A093C602CF9108951F93CF93DF93EC015C
:10093000182F8091C6029091C702892B09F43EC0FE
:10094000812F9927803C910509F447C08B3D910583
:1009500009F45BC08C2F0E94BF034091C4025091E8
:10096000C5024127042E4295407F4025052E542F75
:1009700042954F700426469554274527440F440F4F
:10098000440F40255093C5024093C402A091C60273
:10099000B091C7021196B093C702A093C602CD2FA3
:1009A000DD271C2FAB2BF1F0812F9927803C91057F
:1009B00039F18B3D910571F18C2F30C080EC0E9494
:1009C000BF032FEF3FEF3093C5022093C402812F66
:1009D0009927803C910509F0B9CF8BED0E94BF03A8
:1009E0008CEDB9CF80EC0E94BF036FEF7FEF709367
:1009F000C5026093C402812F9927803C9105C9F6F6
:100A00008BED0E94BF038CED09C08BED0E94BF03EC
:100A10008DEDA1CF8BED0E94BF038DED0E94BF0332
:100A2000E091C402F091C502E1270E2EE295E07F2D
:100A3000E0250F2EFE2FE295EF700E26E695FE279D
:100A4000EF27EE0FEE0FEE0FE025F093C502E093D7
:100A5000C402C091C602D091C7022196D093C702AA
:100A6000C093C602DF91CF911F910895AF92BF92BC
:100A7000CF92DF92EF92FF920F931F93CF935B0180
:100A80006C01C62F8091C6029091C702892B09F490
:100A9000AEC08C2F9927803C910509F4B7C08B3DDF
:100AA000910509F4FDC08A2D0E94BF032091C40264
:100AB0003091C5022C27022E2295207F2025032E5F
:100AC000322F22952F700226269532272327220FB8
:100AD000220F220F20253093C5022093C402A0913B
:100AE000C602B091C7021196B093C702A093C60286
:100AF00011270D2DFC2CEB2CCE2DAB2B09F4B2C005
:100B00008C2F9927803C910509F4BBC08B3D910542
:100B100009F4BCC08E2D0E94BF036091C402709185
:100B2000C5026C27062E6295607F6025072E762F02
:100B300062956F700626669576276727660F660FA3
:100B4000660F60257093C5026093C402E091C602EF
:100B5000F091C7023196F093C702E093C602760186
:100B600000271127CE2DEF2B09F468C08C2F992771
:100B7000803C910509F471C08B3D910509F48BC04F
:100B80008E2D0E94BF030091C4021091C5020C2754
:100B9000002E0295007F0025012E102F02950F7068
:100BA0000026069510270127000F000F000F0025D3
:100BB0001093C5020093C402A091C602B091C7026F
:100BC0001196B093C702A093C602ED2CFF24002714
:100BD0001127CE2DAB2BF9F08C2F9927803C910556
:100BE00041F18B3D910509F460C08E2D62C080EC0F
:100BF0000E94BF030FEF1FEF1093C5020093C402C2
:100C00008C2F9927803C910509F049CF8BED0E94EC
:100C1000BF038CED49CF80EC0E94BF032FEF3FEF65
:100C20003093C5022093C4028C2F9927803C9105F4
:100C3000C1F68BED0E94BF038CED3BC080EC0E949F
:100C4000BF038FEF9FEF9093C5028093C4028C2F58
:100C50009927803C910509F08FCF8BED0E94BF034F
:100C60008CED8FCF80EC0E94BF034FEF5FEF50936E
:100C7000C5024093C4028C2F9927803C910509F04E
:100C800045CF8BED0E94BF038CED45CF8BED0E94CD
:100C9000BF038DED40CF8BED0E94BF038DED71CF73
:100CA0008BED0E94BF038DEDFFCE8BED0E94BF0345
:100CB0008DED0E94BF034091C4025091C5024C27A4
:100CC000042E4295407F4025052E542F42954F70AB
:100CD0000426469554274527440F440F440F4025CA
:100CE0005093C5024093C402E091C602F091C7023E
:100CF0003196F093C702E093C602CF911F910F91F6
:100D0000FF90EF90DF90CF90BF90AF900895EF925B
:100D1000FF920F931F93CF938B017C0101501040E2
:100D20002FEF0F3F120709F459C08091C60290912E
:100D3000C70235C08C2F9927803C910509F444C027
:100D40008B3D910509F445C08C2F0E94BF03209173
:100D5000C4023091C5022C27022E2295207F202527
:100D6000032E322F22952F70022626953227232715
:100D7000220F220F220F20253093C5022093C40298
:100D80008091C6029091C70201969093C70280930A
:100D9000C60201501040FFEF0F3F1F07F9F0F701A7
:100DA000C1917F01892B09F0C5CF80EC0E94BF0360
:100DB0008FEF9FEF9093C5028093C4028C2F9927E9
:100DC000803C910509F0BCCF8BED0E94BF038CEDF8
:100DD000BCCF8BED0E94BF038DEDB7CFCF911F919C
:100DE0000F91FF90EF9008951F93CF93DF93C091E1
:100DF000C402D091C5021C2F8091C6029091C702F7
:100E0000892B09F43EC0812F9927803C910509F474
:100E100047C08B3D910509F45BC08C2F0E94BF0336
:100E20004091C4025091C5024127042E4295407F53
:100E30004025052E542F42954F7004264695542781
:100E40004527440F440F440F40255093C50240935B
:100E5000C402A091C602B091C7021196B093C70216
:100E6000A093C602CD2FDD271C2FAB2BF1F0812FD5
:100E70009927803C910539F18B3D910571F18C2FBB
:100E800030C080EC0E94BF032FEF3FEF3093C502CC
:100E90002093C402812F9927803C910509F0B9CF96
:100EA0008BED0E94BF038CEDB9CF80EC0E94BF0395
:100EB0006FEF7FEF7093C5026093C402812F992773
:100EC000803C9105C9F68BED0E94BF038CED09C0F3
:100ED0008BED0E94BF038DEDA1CF8BED0E94BF0370
:100EE0008DED0E94BF03E091C402F091C502E1279D
:100EF0000E2EE295E07FE0250F2EFE2FE295EF709B
:100F00000E26E695FE27EF27EE0FEE0FEE0FE025FB
:100F1000F093C502E093C402C091C602D091C7020B
:100F20002196D093C702C093C60280EC0E94BF03F3
:100F30001092C7021092C602DF91CF911F910895BF
:100F40009093C9028093C8027093CB026093CA0247
:100F50001092CD021092CC021092CE0208950E94FF
:100F60001E040097B9F10E94A803482F282F3327A9
:100F7000203C310581F12B3D310509F45FC0209102
:100F8000CC023091CD026091CA027091CB0226173B
:100F9000370708F05BC08091CE02882319F04C3DE2
:100FA00009F452C0882319F04D3D09F44BC0E0917B
:100FB000C802F091C902E20FF31F40832F5F3F4F39
:100FC0003093CD022093CC021092CE020E941E04D8
:100FD000009749F608952091CC023091CD021092ED
:100FE000CD021092CC021092CE02223031050CF4C8
:100FF000B6CF6FEF7FEF121613060CF030C0E09102
:10100000C802F091C902A90191916927062E629543
:10101000607F6025072E762F62956F700626669595
:1010200076276727660F660F660F60254150504090
:1010300059F7672BA1F4C9010297089581E08093C5
:10104000CE028DCF4BEDB3CF40ECACCF1092CD02A2
:101050001092CC021092CE028EEF9FEF08958FEF88
:101060009FEF08950F931F93CF93DF939C018B0104
:10107000892B99F181B3806C81BB969A979844270C
:10108000552760E874E88EE190E00E942316E9019C
:10109000C801AA27BB27BC01CD0120EA3FE040E000
:1010A00050E00E940416DC01CB019E014427552725
:1010B000BC01CD010E942316DA01C901232B91F056
:1010C00040EC9C0102B3042702BBCE010197F1F76B
:1010D000A89521503040B1F705C028EE33E081B328
:1010E0008F73CACFDF91CF911F910F910895EF9227
:1010F000FF920F931F93CF93DF93EC01862F9927D5
:101100000E946916482FED85FE85309711F08033D7
:1011100060F48F85992781309105E1F08230910547
:101120006CF1029709F0B3C137C08A3390F7208180
:101130003181C901880F991F880F991F880F991F46
:10114000820F931F820F931F840F911DC09780837E
:1011500091839DC14F34D9F0443409F433C14234F2
:1011600009F43CC14A3309F092C1CE010A968D8739
:101170009E871A861B8682E08F8789C1892B09F09A
:1011800086C14A3309F083C181E08F8780C1CD8752
:10119000DE87188219827BC1042F0154073070F456
:1011A000642F7727660F771F625870406E837F83A6
:1011B000DE011896AD87BE8718861986403509F47A
:1011C00008C1433209F411C14E3209F414C14C3242
:1011D00019F0442309F05BC16885798561157105B3
:1011E00029F4E880F980E886F986B7010A851B852D
:1011F0000115110529F44A815B814A875B878A01C1
:10120000101611060CF03BC1013211052CF0E0E282
:10121000F0E0EA87FB878F01633071052CF483E0EF
:1012200090E088879987BC016930710524F0A8E0B7
:10123000B0E0A887B9872C813D8137FD1DC1359568
:10124000279535952795442737FD4095542F60E61F
:101250007AEE80E090E00E942316DA01C90198013D
:10126000442737FD4095542FBC01CD010E94231621
:10127000B901FC84FF2009F4C1C0C90137FD05C1D3
:1012800095958795680F791F6A877B87EE81FF8127
:10129000EE30F10508F0B5C0EE0FFF1FE050FF4F34
:1012A00020813181688579856530710554F06450FD
:1012B0007040062E02C0220F331F0A94E2F76C5FC3
:1012C0007F4F643071054CF484E090E0861B970BEF
:1012D00002C0359527958A95E2F7EA84FB8406EFEC
:1012E0001FEFE00EF11E2115310509F4C0C081B3D6
:1012F000806C81BB969A97984427552760E874E8DC
:101300008EE190E00E9423168901C701AA27BB271E
:10131000BC01CD0120EA3FE040E050E00E9404160D
:10132000DC01CB01980144275527BC01CD010E9467
:101330002316DA01C901232B61F040EC9C0152B362
:10134000542752BBF8013197F1F7A895215030404E
:10135000B1F731B33F7331BB969A979860E874E860
:101360008EE190E028EE33E040E050E00E9423164A
:10137000DA01C90189019C014427552760E47CE911
:1013800080E090E00E942316DA01C901232B61F06E
:1013900040EC9C0172B3742772BBC8010197F1F74E
:1013A000A89521503040B1F76FEF7FEF6E837F83B8
:1013B000188619861A861B861C86CE010A968D878A
:1013C0009E8765C0DE011296AD87BE871A821B829A
:1013D0005EC08FEF9FEF8E839F8359C0FE013496CE
:1013E000ED87FE871C821D8252C08E819F810196EF
:1013F0008E839F834CC011E01C8749C02A873B879E
:1014000045CF0A851B8591B39F7391BB969A979898
:1014100060E874E88EE190E028EE33E040E050E0D0
:101420000E9423167901C801AA27BB27BC01CD0160
:1014300020EA3FE040E050E00E940416DC01CB01CE
:10144000970144275527BC01CD010E942316211581
:10145000310509F4A9CF60ECB2B3B627B2BBF701EE
:101460003197F1F7A89521503040B1F79DCF28EE84
:1014700033E081B38F733DCF2D5F3F4FE0CE21E04E
:1014800030E02A873B878901BFCE0196F9CEDF91F4
:10149000CF911F910F91FF90EF900895FC0165E0AF
:1014A00070E06083718344E050E0428353832DE712
:1014B00030E0248335838FEF9FEF868397831086F8
:1014C0001186128613861486158616861786089549
:1014D000EF92FF921F93CF93DF93CDB7DEB7609764
:1014E0000FB6F894DEBF0FBECDBF7C0165E070E0A3
:1014F00069837A8344E050E04B835C832DE730E0DE
:101500002D833E838FEF9FEF8F83988719861A86EE
:101510001B861C861D861E861F86188AF701119160
:101520007F01612FCE0101960E9477081123B1F748
:1015300060960FB6F894DEBF0FBECDBFDF91CF919E
:101540001F91FF90EF900895EF92FF921F93CF931A
:10155000DF93CDB7DEB760970FB6F894DEBF0FBE4E
:10156000CDBF7C0165E070E069837A8344E050E0A0
:101570004B835C832DE730E02D833E838FEF9FEF1D
:101580008F83988719861A861B861C861D861E8661
:101590001F86188AF7010894E11CF11C1491612F31
:1015A000CE0101960E9477081123A1F760960FB62D
:1015B000F894DEBF0FBECDBFDF91CF911F91FF909A
:1015C000EF9008952F923F924F925F926F927F9289
:1015D0008F929F92AF92BF92CF92DF92EF92FF9243
:1015E0000F931F93CF93DF93CDB7DEB7C255D04093
:1015F0000FB6F894DEBF0FBECDBF4B011C019F9309
:101600008F937F936F9300ED10E01F930F930E94D1
:10161000850E63961EAE1FAE63978DB79EB7069676
:101620000FB6F8949EBF0FBE8DBFA0E0B0E0A81526
:10163000B90508F0E4C063964EAC5FAC63975F9267
:101640004F924CE151E05F934F9321E030E02C0F3B
:101650003D1F3F932F930E94501101E010E00C0FAB
:101660001D1F080F191FAA24BB24EDB7FEB736961D
:101670000FB6F894FEBF0FBEEDBF61016396EEACEE
:10168000FFAC63971BC084E291E09F938F931F93FD
:101690000F930E945011080F191F0F900F900F9079
:1016A0000F900894A11CB11C0894E11CF11C089433
:1016B000C11CD11C90E1A916B10454F5E814F90439
:1016C00078F0D801E6E2F1E033E001900D923A952E
:1016D000E1F70E5F1F4FA0FCD6CF89E291E0D5CF96
:1016E000F601808199279F938F936BE271E07F933E
:1016F0006F931F930F930E945011080F191FADB7DE
:10170000BEB716960FB6F894BEBF0FBEADBFE3CFFF
:10171000D801E6E2F1E053E001900D925A95E1F72D
:101720000E5F1F4F71016396CEACDFAC63979FE0F5
:10173000692E712C620C731C8EE2482E512CC81439
:10174000D90408F041C0D7017C91A72EBB24C50164
:101750000E946216892BF1F5F801408251820F5FD9
:101760001F4F0894C11CD11C0894E11CF11C6E147D
:101770007F042CF7D801E0E3F1E013E001900D9233
:101780001A95E1F7A1E0B0E0AC0FBD1FBF93AF9396
:1017900063E371E07F936F930E94700E0F900F9040
:1017A0000F900F9063968EAD9FAD639740966396B2
:1017B0008EAF9FAF639700E110E0200E311E8815B9
:1017C000990508F438CF1BC040E250E0F80140838F
:1017D0005183C5CFBF92AF9226E331E03F932F9361
:1017E0001F930F930E945011080F191F8DB79EB7BA
:1017F00006960FB6F8949EBF0FBE8DBFB2CFCE5ADD
:10180000DF4F0FB6F894DEBF0FBECDBFDF91CF9193
:101810001F910F91FF90EF90DF90CF90BF90AF900E
:101820009F908F907F906F905F904F903F902F9000
:1018300008951F920F920FB60F9211248F9381E09B
:101840008093CF028F910F900FBE0F901F9018952D
:1018500010926100109262008FE886B9089535B742
:10186000337E35BF1092CF0225B7206225BF889501
:1018700085B78F7D85BF4091CF024423E1F384B1CA
:1018800095B10895FC01DB010190F081E02D0D90F0
:10189000BC91A02DAE17BF0718F481E090E0089529
:1018A000EA17FB0718F080E090E008958FEF9FEFB4
:1018B000089508951F93CF9340E061E070E0E0ED5C
:1018C000F2E020E030E0DC018D919D9180839183F6
:1018D000483008F08AC0CB01022E02C0880F991F41
:1018E0000A94E2F78283138214824F5F2F5F3F4F87
:1018F0003596483148F322E43CE045E050E068E1A9
:1019000070E080ED92E00E94AA0E10E0C12FB12F8E
:10191000A12F512F852F9927FC01EE0FFF1FEE0FEE
:10192000FF1FE80FF91FE053FD4F60817181452FC4
:10193000583128F59C01F901EE0FFF1FEE0FFF1F34
:10194000E20FF31FE053FD4F9281C92B3381B32B7C
:101950002481A22B5F5F4F5F483188F4242F332707
:10196000F901EE0FFF1FEE0FFF1FE20FF31FE05311
:10197000FD4F80819181861B970B4E97E0F2812F5E
:101980009927FC01EE0FFF1FEE0FFF1FE80FF91F55
:10199000E053FD4F60837183C283B383A4831F5FD1
:1019A000583108F4B7CF1EBC1DBC1CBC51E05EBD55
:1019B00046B7406146BF1ABA17BA14BAE0EDF2E072
:1019C00040E0411788F5208131816CB57DB5621703
:1019D0007307D8F3B281BABBA381A7BB748174BB70
:1019E00035964F5F411778F31FC0403170F4128273
:1019F00028503040CB01022E02C0880F991F0A9454
:101A0000E2F7285F3F4F83836FCF1282138220510A
:101A10003040CB01022E02C0880F991F0A94E2F7D2
:101A2000205F3F4F848361CF06B604FEFDCFCF9188
:101A30001F910895CF93DF93FC011EBC1DBC1CBCFD
:101A400031E03EBD20E436E03BBD2ABD86B7806173
:101A500086BF1ABA17BA14BA06B604FEFDCF5FEFF6
:101A60005ABB57BB54BB60E679E07BBD6ABD46B745
:101A7000406146BF06B604FEFDCF1ABA17BA14BAC3
:101A8000A0ECB2E1BBBDAABD76B7706176BF06B669
:101A900004FEFDCFC0E0DFEADBBDCABD96B79061B2
:101AA00096BFA0EDB2E03FEF432F732F232F532FAC
:101AB000632F06B604FC1FC0C9B34C2396B3392369
:101AC00083B32823842F8727C32FC6278C2B922FDD
:101AD0009527892B69F06CB57DB56D937C93119733
:101AE000742FED014A83632F3B83522F2C8315966D
:101AF00006B604FEE1CF2FEF2ABB27BB24BB1D9205
:101B00001C921197ED011A821B821C8282E0A03D7B
:101B1000B80708F045C07DC0852F992780FF02C017
:101B2000208B318B81FF02C0228B338B82FF02C05E
:101B3000248B358B83FF02C0268B378B84FF02C03A
:101B4000208F318F85FF02C0228F338F86FF02C026
:101B5000248F358F57FD54C0862F992780FF02C0F0
:101B600020A331A381FF02C022A333A382FF02C0BE
:101B700024A335A383FF02C026A337A384FF02C09A
:101B800020A731A785FF02C022A733A786FF02C086
:101B900024A735A767FD37C082E0A03DB807C8F18C
:101BA0002D913C911197205A3F40ED014A8140957B
:101BB0005B8150956C8160951597842F992780FFE4
:101BC00002C02083318381FF02C02283338382FFDE
:101BD00002C02483358383FF02C02683378384FFBA
:101BE00002C02087318785FF02C02287338786FFA6
:101BF00002C02487358747FF8FCF268737878CCF52
:101C0000268F378FA9CF26A737A782E0A03DB80738
:101C100038F6DF91CF9108951BBA8FEF8ABB18BABF
:101C200087BB15BA84BB0895E199FECF9FBB8EBBDD
:101C3000E09A99278DB30895E199FECF9FBB8EBBA3
:101C40006DBB0FB6F894E29AE19A0FBE08950F9318
:101C50001F93CF93DF938C01EB010097A1F16CE010
:101C600070E081E090E00E947E14FC01892B21F15C
:101C7000209751F0C287D38721E023838091FF030F
:101C800090910004892BD1F001151105A9F000876E
:101C90001187038102600383A0910104B0910204C3
:101CA000AB2B51F4F0930204E0930104C0910304C0
:101CB000D0910404CD2B51F0CF010DC0F09300045E
:101CC000E093FF03E1CF672B51F605C0F0930404C6
:101CD000E0930304F1CFDF91CF911F910F9108950D
:101CE000CF93DF93CDB7DEB7E5E0F0E0EC0FFD1F5B
:101CF00081919191AF01BC01809101049091020406
:101D00000E948111DF91CF910895CF93DF93CDB7DA
:101D1000DEB745E050E04C0F5D1FFA012191319193
:101D2000AF01A0910104B0910204FD01838188609C
:101D30008383B90180910104909102040E94811172
:101D4000E0910104F09102042381277F2383DF9136
:101D5000CF9108952F923F924F925F926F927F9210
:101D60008F929F92AF92BF92CF92DF92EF92FF92AB
:101D70000F931F93CF93DF93CDB7DEB72C970FB69A
:101D8000F894DEBF0FBECDBF5C011B016A014901A3
:101D90006624772427E02216310408F486C1210145
:101DA000569447944C9C80014D9C100D5C9C100DEA
:101DB00011240A0D1B1D38E02316310408F4B5C0A8
:101DC000A986BA86D1011197AD83BE83AC9D7001FF
:101DD000AD9DF00CBC9DF00C1124EA0CFB1C99E2AB
:101DE0002916310408F0AFC0B80189859A85F4013D
:101DF000099597FD17C1B701C801F4010995181697
:101E000019060CF097C0B8018B019601D501F801B5
:101E10005C90E080ED9251922150304012161306F2
:101E2000BCF385010C0D1D1D0B831C8328012D8126
:101E30003E812C9D70012D9DF00C3C9DF00C1124D9
:101E4000EA0CFB1CEB86FC864B855C854017510732
:101E500008F04DC02B853C852017310728F1B501CE
:101E6000C901F40109959923FCF0892B91F491E0C3
:101E7000692E712C9601AB85BC85F7019C91608120
:101E80006D9391932150304012161306BCF3EC1859
:101E9000FD088B859C858C199D098B879C872B85DC
:101EA0003C8520173107D8F68B859C8580179107D4
:101EB00008F44BC19601D801FC016C9070807D92B2
:101EC00061922150304012161306BCF381E0682E57
:101ED000712C0C0D1D1DEB85FC85EC19FD09EB87A4
:101EE000FC874B855C854017510708F4B3CFB501DB
:101EF000C801F4010995181619060CF4ABCF892B0B
:101F000089F421E0622E712C9601D201F8015C91D6
:101F100070817D9351932150304012161306BCF30B
:101F20004C0C5D1C0C0D1D1D8FCFD1011197AD8385
:101F3000BE836BCFB70189859A85F401099597FD1A
:101F40007FC0B70161CFA10156954795569547953A
:101F5000569547954C9DF0014D9DF00D5C9DF00D03
:101F60001124E983FA83EA0DFB1DEB87FC872981A5
:101F70003A81220F331F2F83388729014A0C5B1CBB
:101F8000BF01C501F401099597FD7FC0B2018B85A2
:101F90009C85F4010995181619060CF0CEC06B85C6
:101FA0007C8569877A87280169817A81461A570A70
:101FB000600F711F6B877C87B801C201F40109951E
:101FC00097FD52C06B857C85C801F40109951816F0
:101FD00019060CF0A8C0B8018B012701EF81F88524
:101FE0004E1A5F0AD70189819A81A81BB90BAB876A
:101FF000BC87BD01C201F401099597FD24C0B7015A
:102000008B859C85F4010995181619060CF082C081
:102010006B857C857B01B80189859A85F4010995DA
:1020200097FFE9CEB701C801F401099597FDEBCE02
:10203000B70189859A85F401099599230CF481CF1C
:1020400069857A85E1CEB7018B859C85F401099578
:1020500097FDDECFB701C201F401099599230CF475
:102060005FC0B2017B01D7CF6B857C85C801F401CD
:10207000099597FDB0CF6B857C85C201F401099568
:1020800099230CF457C0B201A7CFB2018B859C8570
:10209000F401099597FD83CFB201C501F4010995BB
:1020A00099230CF450C0B5017CCF7501EC0CFD1CDC
:1020B0002C9CB0012D9C700D3C9C700D11246A0D60
:1020C0007B1DE616F70608F0D2C03B012701A414D9
:1020D000B504D0F482010C191D09B201C801F40144
:1020E00009951816190684F49601D201F8019C91FD
:1020F00080818D9391932150304012161306BCF3CA
:102100002801A414B50430F3EC0CFD1CE614F7040C
:10211000E8F2ADC0B701C201F401099597FDA1CF66
:10212000B7017B0178CF6B857C85C201F4010995ED
:1021300097FDA9CF6B857C854FCFB201C501F40116
:10214000099597FDB0CFB2012CCF672809F45DC087
:102150002C9C30012D9C700C3C9C700C11246A0C42
:102160007B1CA80144195509CA0192012A193B098F
:10217000241735070CF4C9011816190674F49C01CC
:10218000D501F801E81BF90B4C9050805D9241920B
:102190002150304012161306BCF3C3018E199F095B
:1021A0008C199D09AB85BC85EA1AFB0AE816F9066D
:1021B00008F4C7011816190674F49C01D801F3013C
:1021C000E81BF90B0C9110811D93019321503040B5
:1021D00012161306BCF3C416D50668F0CE14DF043D
:1021E00008F045C05301AE18BF08C701B6010E94F0
:1021F0007C161B01CDCDCA01B6010E947C1694014C
:10220000A601C5010E94AA0EE9CFEB80FC802C9CA0
:10221000B0012D9C700D3C9C700D11246A0D7B1D2E
:10222000E616F70620F53B012701A414B504D0F407
:1022300082010C191D09B201C801F4010995181693
:10224000190684F49601D201F8012C9030803D9259
:1022500021922150304012161306BCF32801A41419
:10226000B50430F3EC0CFD1CE614F704E8F22C96F0
:102270000FB6F894DEBF0FBECDBFDF91CF911F9197
:102280000F91FF90EF90DF90CF90BF90AF909F9015
:102290008F907F906F905F904F903F902F90089518
:1022A0000F931F93CF93DF93CDB7DEB72C970FB665
:1022B000F894DEBF0FBECDBF0B891C89AD89BE89E6
:1022C00036E03C8309831A838FEF9FE78D839E83DB
:1022D000AE01495E5F4FBD01CE0101960E948111A2
:1022E0002F813885020F131FF80110822C960FB62C
:1022F000F894DEBF0FBECDBFDF91CF911F910F913C
:1023000008952F923F924F925F926F927F928F9299
:102310009F92AF92BF92CF92DF92EF92FF920F9374
:102320001F93CF93DF93CDB7DEB762970FB6F894C4
:10233000DEBF0FBECDBFAA24BB2465014C011B012B
:102340004D875E8744245524FC0146825782838151
:1023500081FDACC28FEF9FEFB8C20894211C311CE5
:1023600040FE92C2862D80538A30F0F4F0E36F165F
:1023700051F42A89222339F443FC05C080E091E01E
:10238000482A592A93C28AE09A89989F902D11244D
:10239000892F860D80538A8B882314F4EFE7EA8B0C
:1023A00043FC84C27A8882C243FE05C0FA89FF23B7
:1023B00011F421E02A8B862D992787FD9095883688
:1023C00091057CF5853691050CF070C0833591053B
:1023D00009F49FC084359105BCF48B32910509F452
:1023E00047C08C32910544F48032910509F444C011
:1023F000839709F44BC03EC28D32910509F441C068
:102400008E9709F448C036C28336910509F458C046
:10241000843691050CF09AC08835910509F4D1C035
:1024200029C28037910509F4C4C08137910584F42D
:102430008C369105B1F18D3691052CF489369105D4
:1024400009F484C017C28F36910509F4AFC012C2D7
:102450008537910509F4B7C08637910524F4833791
:102460009105B9F107C28837910509F4AAC002C2E3
:1024700080E190E0482A592AE0E2F0E04E2A5F2A03
:1024800015C220E830E0422A532A10C280E490E0CE
:10249000482A592A0BC2E8E0F0E04E2A5F2A1A8A3D
:1024A00005C224E030E0422A532A00C20F2EFFE387
:1024B000AF2EF02D7A940F2EF3E66F2EF02D65C11E
:1024C000ED85FE85CF0102968D879E87A0807A9448
:1024D0005CC1ED85FE859F012E5F3F4F2D873E87B6
:1024E000A080B18043FE0BC03A89832F992787FDD6
:1024F0009095BC01C5010E94EE158F8707C0F501BC
:1025000001900020E9F73197EA19EF878F85781A53
:102510003CC1ED85FE859F012E5F3F4F2D873E8795
:10252000A080B18043FE0BC03A89832F992787FD95
:102530009095BC01C5010E94F9158F8704C0C501A3
:102540000E94E5158F878F85781A1FC142FE0CC047
:10255000ED85FE859F012C5F3F4F2D873E872081B3
:102560003181428153810DC0ED85FE85CF010296F8
:102570008D879E87808191819C01442737FD4095FE
:10258000542F59016A01552364F4E2E0F0E04E2A29
:102590005F2AD094C094B094A094A11CB11CC11C1B
:1025A000D11C2FEB3FEF422253222CC038E03F8753
:1025B0000AC080E490E0482A592A0F2EF8E76F2ECF
:1025C000F02D90E19F8742FE0CC0ED85FE859F01B6
:1025D0002C5F3F4F2D873E8720813181428153817F
:1025E0000BC0ED85FE85CF0102968D879E87808189
:1025F00091819C014427552759016A01EFECFFEFB7
:102600004E225F229E012F5F3F4F288B398B3F85E3
:10261000E32EFF2400271127C601B501A801970169
:102620000E943E16DC01CB01E889F98980838A305B
:102630001CF0860D815204C0E889F9898081805D93
:10264000E889F9898193E88BF98BC601B501A80166
:1026500097010E943E1659016A0121153105410575
:102660005105D1F6CE010196A888A81AC20182733D
:102670009070892B09F07A9446FE0FC0872D992718
:1026800087FD9095FF85F03131F40F2EFEEF7F2E00
:10269000F02D780E02C0782E7A9443FE12C08A89FB
:1026A000282F332727FD30958A2D992782179307E6
:1026B0002CF0E7EFFFEF4E225F2203C0FA89FA19F0
:1026C000FA8B43FE03C02A89721A01C07A18C2012C
:1026D00080789170892B69F4872D7A9418164CF4C0
:1026E000B40180E290E00E949A14872D7A94181623
:1026F000BCF341FE06C0B4018DE290E00E949A1442
:102700000FC044FE06C0B4018BE290E00E949A1410
:1027100007C045FE05C0B40180E290E00E949A1413
:1027200046FE0FC0B40180E390E00E949A143F85FA
:10273000303139F4B401862D992787FD90950E9498
:102740009A14852D992780FF0DC0872D7A9418162D
:102750004CF4B40180E390E00E949A14872D7A949F
:102760001816BCF343FE11C08A89982F91509A8B9A
:1027700018165CF4B40180E390E00E949A148A89F0
:10278000E82FE150EA8B1816ACF347FC0DC0872DFB
:102790007A9418164CF4B40180E290E00E949A14E6
:1027A000872D7A941816BCF3F3E66F1641F48A2D40
:1027B000B401992787FD90950E949A144BC023E796
:1027C0006216B9F43F8531503F873F3F09F442C05C
:1027D000F50180810894A11CB11CB401992787FDE3
:1027E00090950E949A148F8581508F878F3F81F733
:1027F00031C093E56916A1F4EF85E150EF87EF3F13
:1028000049F1F5018491B40199270E949A14089422
:10281000A11CB11CFF85F150FF87FF3F91F71AC043
:10282000CE010196288939898217930799F08E0184
:102830000F5F1F4FE889F9898291E88BF98BB4010A
:10284000992787FD90950E949A1428893989021743
:10285000130781F747FE15C0872D7A9418168CF45C
:10286000B40180E290E00E949A14872D7A941816A1
:10287000BCF307C0B401862D992787FD90950E946F
:102880009A144424552412C035E2631641F44424BA
:10289000552443941A8A7A888AE08F8707C0B40146
:1028A000862D992787FD90950E949A14F4018381C3
:1028B00083FF03C0F101649002C0F10160806620D3
:1028C00009F04BCDF4018681978162960FB6F8949A
:1028D000DEBF0FBECDBFDF91CF911F910F91FF9053
:1028E000EF90DF90CF90BF90AF909F908F907F90B0
:1028F0006F905F904F903F902F9008950F931F938C
:10290000CF93DF93869F8001879F100D969F100DB8
:102910001124C8010E94CD14EC01009729F0A801F0
:1029200060E070E00E94DE15CE01DF91CF911F9133
:102930000F9108950F931F93CF93DF938C01EB01B9
:102940008B81992781FF22C082FF14C02E813F8195
:102950008C819D81281739073CF4E881F981019326
:10296000E883F9832E813F812F5F3F4F2E833F8382
:10297000C8010EC0E885F985802F0995892B31F4AF
:10298000AE81BF811196AE83BF83F2CF8FEF9FEFF1
:10299000DF91CF911F910F910895CF93DF939C0109
:1029A000029710F422E030E040E050E0609107042C
:1029B00070910804FB01DA016115710569F18081EC
:1029C00091818217930709F452C02817390738F408
:1029D0004115510519F08417950708F4AC01DF0182
:1029E0000280F381E02D309751F741155105A1F098
:1029F000DA01A21BB30B149708F443C0DB010AC031
:102A00006D917C9111976417750709F450C0FD0111
:102A1000A281B3811097A1F7E0910504F09106041B
:102A2000309741F4E0913B01F0913C01F0930604B2
:102A3000E09305044091390150913A014115510547
:102A400029F14E1B5F0B42175307E8F0C9010296AC
:102A500048175907C0F0EF01C20FD31F2296D09339
:102A60000604C093050421933193CF0142C010970F
:102A7000B1F082819381ED018A839B83CF0102961D
:102A800038C09A01BBCF80E090E033C04DB75EB74D
:102A9000A0913D01B0913E014A1B5B0BD2CF228138
:102AA00033813093080420930704CF01E8CF241723
:102AB000350761F0EA01C21BD30BFD01EC0FFD1FCE
:102AC000219331932297CD93DC93CFCF309741F070
:102AD000ED014A815B8142835383CD01029609C097
:102AE000FD01828193819093080480930704CD01B6
:102AF000F5CFDF91CF910895CF93DF93009709F43D
:102B00005AC0DC011297ED011A821B8280910704E2
:102B1000909108040097D9F1FC0140E050E0EA17D9
:102B2000FB0748F4AF010280F381E02D3097A1F05C
:102B3000EA17FB07B8F3ED01EA83FB832D913C9183
:102B40001197E901CA0FDB1FCE0102968E179F076E
:102B500019F141155105D9F0EA01AA83BB83CA01D5
:102B6000029628813981820F931F8A179B0719F5D6
:102B70006D917C911197260F371F2E5F3F4F288351
:102B80003983FD01428153814A835B8314C0B09332
:102B90000804A09307040FC06A817B81260F371FAA
:102BA0002E5F3F4F2D933C93119722813381FD017E
:102BB00022833383CECFDF91CF910895DC0101C012
:102BC0006D9341505040E0F70895FC0105900020BE
:102BD000E9F7809590958E0F9F1F0895FC01615035
:102BE000704001900110D8F7809590958E0F9F1F2F
:102BF0000895FC016150704005900110D8F7809550
:102C000090958E0F9F1F0895629FD001739FF001D2
:102C1000829FE00DF11D649FE00DF11D929FF00D6C
:102C2000839FF00D749FF00D659FF00D9927729FA3
:102C3000B00DE11DF91F639FB00DE11DF91FBD012E
:102C4000CF011124089597FB092E05260ED057FDBC
:102C500004D014D00AD0001C38F45095409530951B
:102C600021953F4F4F4F5F4F0895F6F79095809510
:102C7000709561957F4F8F4F9F4F0895A1E21A2E57
:102C8000AA1BBB1BFD010DC0AA1FBB1FEE1FFF1F10
:102C9000A217B307E407F50720F0A21BB30BE40B60
:102CA000F50B661F771F881F991F1A9469F76095A7
:102CB0007095809590959B01AC01BD01CF01089561
:102CC000803269F0992359F480324CF08F373CF40C
:102CD00008958F9309D08F9109F08F7D08959927DA
:102CE0008827089585FDFBCF80629923C1F781363F
:102CF000B4F38B37A4F70895AA1BBB1B51E107C09F
:102D0000AA1FBB1FA617B70710F0A61BB70B881F7B
:102D1000991F5A95A9F780959095BC01CD0108950A
:102D2000B801D201EE0100000601150126013701AC
:102D30004A0100005D01720188019F01253034784D
:102D40003A20200020002020002D0025303258009D
:102D50000D0A00257300256300000009042000000F
:00000001FF
