:020000021000EC
:10E000000C9446F00C9463F00C9463F00C9463F061
:10E010000C9463F00C9463F00C9463F00C9463F034
:10E020000C9463F00C9463F00C9463F00C9463F024
:10E030000C9463F00C9463F00C9463F00C9463F014
:10E040000C9463F00C9463F00C9463F00C9463F004
:10E050000C9463F00C9463F00C9463F00C9463F0F4
:10E060000C9463F00C9463F00C9463F00C9463F0E4
:10E070000C9463F00C9463F00C9463F00C9463F0D4
:10E080000C9463F00C9463F00C9463F011241FBEA5
:10E09000CFEFD0E1DEBFCDBF11E0A0E0B1E0E4E71B
:10E0A000F8EE01E00BBF02C007900D92A230B1075D
:10E0B000D9F712E0A2E0B1E001C01D92AB30B10788
:10E0C000E1F70C94C0F00C9400F01092080290E07C
:10E0D0009817F0F4692F94982FEF33ED40E350E058
:10E0E000225330404040504057FFFACF949A2FEFD0
:10E0F00037E448EE51E0225330404040504057FF53
:10E10000FACF962F9F5F692F981728F390930802F4
:10E1100008955D9BFECF8CB908955F9BFECF8CB1B7
:10E12000992787FD909508955F9BFECF8CB1803233
:10E1300009F008955D9BFECF24E12CB95D9BFECFD5
:10E1400030E13CB90895982F5F9BFECF8CB18032AF
:10E1500009F008955D9BFECF24E12CB95D9BFECFB5
:10E160009CB95D9BFECF30E13CB90895282F90E02B
:10E1700004C05F9BFECF8CB19F5F9217D0F30895D0
:10E18000CFEFD0E1DEBFCDBF0000109164001D7F56
:10E190001093640000916500026000936500E0E068
:10E1A000F0E084918F3F21F02091630021FD6EC04B
:10E1B00060E169B91092900052E05BB946E040938B
:10E1C000950038E13AB98C9A1092080220E09498B0
:10E1D0008FEF93EDA0E3B0E0C297A109B109B7FFBB
:10E1E000FBCF949A8FEF97E4A8EEB1E0C297A10914
:10E1F000B109B7FFFBCF822F8F5F282F833038F311
:10E20000809308025D9BFECF1CB860910A025F9B61
:10E21000FECF8CB1803309F43FC0813309F459C279
:10E22000803409F423C2813409F435C2823409F4FC
:10E2300009C2853409F4F2C1803509F4E2C181359F
:10E2400009F4D2C1823509F4C2C1853509F40DC182
:10E25000863509F498C0843609F4ACC0843709F4D3
:10E2600041C0853731F1863791F65F9BFECFACB167
:10E27000A03269F65D9BFECF74E17CB95D9BFECF59
:10E280001CB85D9BFECF20E12CB9C1CFE09102010B
:10E29000F091030109958CCF5F9BFECF7CB170326A
:10E2A00009F0B5CF5D9BFECF94E19CB95D9BFECF9D
:10E2B000EACF5F9BFECFFCB1F03209F0A8CF5D9BA7
:10E2C000FECF04E10CB95D9BFECF1EE11CB95D9B46
:10E2D000FECF47E94CB95D9BFECF52E05CB95D9B38
:10E2E000FECFD1CF5F9BFECF3CB1309307025F9B47
:10E2F000FECF9CB19093060220910401309105015C
:10E3000037FDCAC0962F9D7F5F9BFECFBCB1B53451
:10E3100009F4C5C0692F6E7F60930A02220F331F74
:10E3200030930501209304015F9BFECFCCB1C03236
:10E3300009F06DCF5D9BFECF84E18CB9C0E0D0E0E9
:10E34000409106025091070214161506C8F48091F8
:10E350000A0280FDA9C0869580FDBEC0F9018491A6
:10E360005D9BFECF8CB9F90131969F01F0930501B9
:10E37000E09304012196C417D50748F360910A027F
:10E380005D9BFECF80CF90E05F9BFECF8CB19F5F07
:10E390009430D0F35F9BFECF7CB1703209F037CF61
:10E3A0005D9BFECF94E19CB95D9BFECF1CB85D9B4D
:10E3B000FECF69CF5F9BFECFACB1A09307025F9BFE
:10E3C000FECFBCB1B09306026E7F5F9BFECFCCB197
:10E3D000C53409F4616060930A0240E050E0209186
:10E3E0000602309107021216130658F4E6E0F1E037
:10E3F0005F9BFECF8CB181934F5F5F4F42175307F6
:10E40000B8F35F9BFECFFCB1F03209F000CF009172
:10E410000A0200FF6EC0C0E0D0E012161306F0F44E
:10E4200006E011E0F80161918F0180910401909163
:10E4300005010E942FF4E0910401F091050131964D
:10E44000F0930501E093040121966091060270911A
:10E450000702C617D70730F360910A025D9BFECF13
:10E4600024E12CB95D9BFECF0ECF5F9BFECFECB1BC
:10E47000E09304015F9BFECF3CB1309305015F9BAD
:10E48000FECF4CB1403209F0C2CE5D9BFECF54E1CD
:10E490005CB95D9BFECFF7CE962F926035CF692F8A
:10E4A000616060930A0240CF809104019091050160
:10E4B0000E9427F45D9BFECF8CB92091040130911E
:10E4C00005012F5F3F4F30930501209304014091D8
:10E4D0000602509107024ECFC901AA27BB278050E0
:10E4E0009040AF4FBF4FABBFFC0187915D9BFECF0C
:10E4F00039CF1091050117FD66C010920902709185
:10E5000009027BBFA0910401B0910501AA0FBB1FB6
:10E51000B0930501A09304015091060250FF06C07C
:10E520002F5F3F4F3093070220930602F894E19942
:10E53000FECF1127E0910401F0910501C6E0D1E082
:10E540008091060290910702103091F400916800CA
:10E5500001700130D9F303E000936800E895009161
:10E56000680001700130D9F301E100936800E8957B
:10E57000099019900091680001700130D9F301E011
:10E5800000936800E8951395103898F011270091D2
:10E59000680001700130D9F305E000936800E89548
:10E5A0000091680001700130D9F301E10093680027
:10E5B000E8953296029709F0C7CF103011F0029615
:10E5C000E5CF11244BCF41E04093090298CF5F9BE8
:10E5D000FECF1CB1103209F01ACE5D9BFECF24E1B4
:10E5E0002CB95D9BFECF4FCE5F9BFECF8CB18032AE
:10E5F00009F00DCE5D9BFECF04E10CB95D9BFECF13
:10E6000042CE5F9BFECFCCB1C03209F000CE5D9B05
:10E61000FECFF4E1FCB95D9BFECF35CE90E05F9B71
:10E62000FECF8CB19F5F9530D0F35F9BFECFACB136
:10E63000A03209F0ECCD5D9BFECFB4E1BCB95D9B8F
:10E64000FECF21CE90E05F9BFECF8CB19F5F9431D7
:10E65000D0F35F9BFECF7CB1703209F0D8CD5D9BCB
:10E66000FECF94E19CB95D9BFECF0DCE5F9BFECFAC
:10E670003CB1363818F05F9BFECF8CB15F9BFECF6C
:10E680004CB1403209F0C3CD5D9BFECF54E15CB983
:10E690005D9BFECFF8CD5F9BFECF8CB1803809F437
:10E6A00074C0813809F460C0823809F44CC08839DC
:10E6B000C9F15F9BFECF4CB1403209F0A8CD5D9B04
:10E6C000FECF54E15CB95D9BFECF1CB85D9BFECFD5
:10E6D000DACD5F9BFECFACB1A03209F098CD5D9B47
:10E6E000FECFB4E1BCB95D9BFECFC1E4CCB95D9B6C
:10E6F000FECFF6E5FCB95D9BFECF82E58CB95D9B54
:10E70000FECF00E20CB95D9BFECF19E41CB95D9B06
:10E71000FECF23E52CB95D9BFECFE0E5ECB95D9B18
:10E72000FECFB1CD5F9BFECF2CB1203209F06FCD73
:10E730005D9BFECFE4E1ECB95D9BFECF33E03CB9DD
:10E740005D9BFECFA0CD5F9BFECF8CB1803209F0E8
:10E750005ECD5D9BFECF04E10CB95D9BFECF14E066
:10E760001CB95D9BFECF8FCD5F9BFECFBCB1B0329D
:10E7700009F04DCD5D9BFECFC4E1CCB95D9BFECFD2
:10E78000F2E0FCB95D9BFECF7ECD5F9BFECF7CB1FE
:10E79000703209F03CCD5D9BFECF94E19CB95D9B4E
:10E7A000FECFA2E0ACB95D9BFECF6DCD5F9BFECFEF
:10E7B0008CB1992787FD9095282F5D9BFECF8CB952
:10E7C0005F9BFECF8CB1992787FD9095382F5D9B7D
:10E7D000FECF8CB921362CF02755313634F0375521
:10E7E00007C02033D4F32053F8CF30330CF030532C
:10E7F0002295207F230F822F992787FD90950895DA
:10E80000282F992787FD9095807F90709595879503
:10E810009595879595958795959587958A306CF010
:10E82000982F995A822F8F708A306CF0895A5D9B8D
:10E83000FECF9CB95D9BFECF08C0982F905D822FC4
:10E840008F708A309CF7805DF2CF8CB90895E19982
:10E85000FECF9FBB8EBBE09A99278DB30895E199B7
:10E86000FECF9FBB8EBB6DBB0FB6F894E29AE19AC8
:04E870000FBE08953A
:02E87400800022
:040000031000E00009
:00000001FF
